{
  "contractName": "SushiUniFlashloan",
  "abi": [
    {
      "inputs": [
        {
          "internalType": "address",
          "name": "sushiAddress",
          "type": "address"
        },
        {
          "internalType": "address",
          "name": "uniswapAddress",
          "type": "address"
        },
        {
          "internalType": "address",
          "name": "wethAddress",
          "type": "address"
        },
        {
          "internalType": "address",
          "name": "daiAddress",
          "type": "address"
        },
        {
          "internalType": "address",
          "name": "beneficiaryAddress",
          "type": "address"
        }
      ],
      "payable": false,
      "stateMutability": "nonpayable",
      "type": "constructor"
    },
    {
      "anonymous": false,
      "inputs": [
        {
          "indexed": false,
          "internalType": "enum SushiUniFlashloan.Direction",
          "name": "direction",
          "type": "uint8"
        },
        {
          "indexed": false,
          "internalType": "uint256",
          "name": "profit",
          "type": "uint256"
        },
        {
          "indexed": false,
          "internalType": "uint256",
          "name": "date",
          "type": "uint256"
        }
      ],
      "name": "NewArbitrage",
      "type": "event"
    },
    {
      "payable": true,
      "stateMutability": "payable",
      "type": "fallback"
    },
    {
      "constant": false,
      "inputs": [
        {
          "internalType": "address",
          "name": "sender",
          "type": "address"
        },
        {
          "components": [
            {
              "internalType": "address",
              "name": "owner",
              "type": "address"
            },
            {
              "internalType": "uint256",
              "name": "number",
              "type": "uint256"
            }
          ],
          "internalType": "struct Account.Info",
          "name": "account",
          "type": "tuple"
        },
        {
          "internalType": "bytes",
          "name": "data",
          "type": "bytes"
        }
      ],
      "name": "callFunction",
      "outputs": [],
      "payable": false,
      "stateMutability": "nonpayable",
      "type": "function"
    },
    {
      "constant": false,
      "inputs": [
        {
          "internalType": "address",
          "name": "_solo",
          "type": "address"
        },
        {
          "internalType": "address",
          "name": "_token",
          "type": "address"
        },
        {
          "internalType": "uint256",
          "name": "_amount",
          "type": "uint256"
        },
        {
          "internalType": "enum SushiUniFlashloan.Direction",
          "name": "_direction",
          "type": "uint8"
        }
      ],
      "name": "initiateFlashloan",
      "outputs": [],
      "payable": false,
      "stateMutability": "nonpayable",
      "type": "function"
    }
  ],
  "bytecode": "0x60806040523480156200001157600080fd5b50604051620029293803806200292983398181016040526200003791908101906200019d565b846000806101000a81548173ffffffffffffffffffffffffffffffffffffffff021916908373ffffffffffffffffffffffffffffffffffffffff16021790555083600160006101000a81548173ffffffffffffffffffffffffffffffffffffffff021916908373ffffffffffffffffffffffffffffffffffffffff16021790555082600260006101000a81548173ffffffffffffffffffffffffffffffffffffffff021916908373ffffffffffffffffffffffffffffffffffffffff16021790555081600360006101000a81548173ffffffffffffffffffffffffffffffffffffffff021916908373ffffffffffffffffffffffffffffffffffffffff16021790555080600460006101000a81548173ffffffffffffffffffffffffffffffffffffffff021916908373ffffffffffffffffffffffffffffffffffffffff16021790555050505050506200026d565b600081519050620001978162000253565b92915050565b600080600080600060a08688031215620001b657600080fd5b6000620001c68882890162000186565b9550506020620001d98882890162000186565b9450506040620001ec8882890162000186565b9350506060620001ff8882890162000186565b9250506080620002128882890162000186565b9150509295509295909350565b60006200022c8262000233565b9050919050565b600073ffffffffffffffffffffffffffffffffffffffff82169050919050565b6200025e816200021f565b81146200026a57600080fd5b50565b6126ac806200027d6000396000f3fe6080604052600436106100295760003560e01c80638b4187131461002b578063c013147614610054575b005b34801561003757600080fd5b50610052600480360361004d9190810190611b1c565b61007d565b005b34801561006057600080fd5b5061007b60048036036100769190810190611ab9565b61100f565b005b6100856116f1565b818060200190516100999190810190611bed565b90506000600360009054906101000a900473ffffffffffffffffffffffffffffffffffffffff1673ffffffffffffffffffffffffffffffffffffffff166370a08231306040518263ffffffff1660e01b81526004016100f89190612104565b60206040518083038186803b15801561011057600080fd5b505afa158015610124573d6000803e3d6000fd5b505050506040513d601f19601f820116820180604052506101489190810190611c16565b90506000600181111561015757fe5b8260000151600181111561016757fe5b141561076057600360009054906101000a900473ffffffffffffffffffffffffffffffffffffffff1673ffffffffffffffffffffffffffffffffffffffff1663095ea7b36000809054906101000a900473ffffffffffffffffffffffffffffffffffffffff16836040518363ffffffff1660e01b81526004016101eb92919061211f565b602060405180830381600087803b15801561020557600080fd5b505af1158015610219573d6000803e3d6000fd5b505050506040513d601f19601f8201168201806040525061023d9190810190611bc4565b50606060026040519080825280602002602001820160405280156102705781602001602082028038833980820191505090505b509050600360009054906101000a900473ffffffffffffffffffffffffffffffffffffffff16816000815181106102a357fe5b602002602001019073ffffffffffffffffffffffffffffffffffffffff16908173ffffffffffffffffffffffffffffffffffffffff1681525050600260009054906101000a900473ffffffffffffffffffffffffffffffffffffffff168160018151811061030d57fe5b602002602001019073ffffffffffffffffffffffffffffffffffffffff16908173ffffffffffffffffffffffffffffffffffffffff168152505060606000809054906101000a900473ffffffffffffffffffffffffffffffffffffffff1673ffffffffffffffffffffffffffffffffffffffff1663d06ca61f84846040518363ffffffff1660e01b81526004016103a592919061224c565b60006040518083038186803b1580156103bd57600080fd5b505afa1580156103d1573d6000803e3d6000fd5b505050506040513d6000823e3d601f19601f820116820180604052506103fa9190810190611b83565b90506000809054906101000a900473ffffffffffffffffffffffffffffffffffffffff1673ffffffffffffffffffffffffffffffffffffffff166318cbafe5848360018151811061044757fe5b60200260200101518530426040518663ffffffff1660e01b81526004016104729594939291906122c8565b600060405180830381600087803b15801561048c57600080fd5b505af11580156104a0573d6000803e3d6000fd5b505050506040513d6000823e3d601f19601f820116820180604052506104c99190810190611b83565b50606060026040519080825280602002602001820160405280156104fc5781602001602082028038833980820191505090505b509050600260009054906101000a900473ffffffffffffffffffffffffffffffffffffffff168160008151811061052f57fe5b602002602001019073ffffffffffffffffffffffffffffffffffffffff16908173ffffffffffffffffffffffffffffffffffffffff1681525050600360009054906101000a900473ffffffffffffffffffffffffffffffffffffffff168160018151811061059957fe5b602002602001019073ffffffffffffffffffffffffffffffffffffffff16908173ffffffffffffffffffffffffffffffffffffffff16815250506060600160009054906101000a900473ffffffffffffffffffffffffffffffffffffffff1673ffffffffffffffffffffffffffffffffffffffff1663d06ca61f47846040518363ffffffff1660e01b815260040161063292919061224c565b60006040518083038186803b15801561064a57600080fd5b505afa15801561065e573d6000803e3d6000fd5b505050506040513d6000823e3d601f19601f820116820180604052506106879190810190611b83565b9050600160009054906101000a900473ffffffffffffffffffffffffffffffffffffffff1673ffffffffffffffffffffffffffffffffffffffff16637ff36ab547836001815181106106d557fe5b60200260200101518530426040518663ffffffff1660e01b81526004016106ff949392919061227c565b6000604051808303818588803b15801561071857600080fd5b505af115801561072c573d6000803e3d6000fd5b50505050506040513d6000823e3d601f19601f820116820180604052506107569190810190611b83565b5050505050610d50565b600360009054906101000a900473ffffffffffffffffffffffffffffffffffffffff1673ffffffffffffffffffffffffffffffffffffffff1663095ea7b3600160009054906101000a900473ffffffffffffffffffffffffffffffffffffffff16836040518363ffffffff1660e01b81526004016107df92919061211f565b602060405180830381600087803b1580156107f957600080fd5b505af115801561080d573d6000803e3d6000fd5b505050506040513d601f19601f820116820180604052506108319190810190611bc4565b50606060026040519080825280602002602001820160405280156108645781602001602082028038833980820191505090505b509050600360009054906101000a900473ffffffffffffffffffffffffffffffffffffffff168160008151811061089757fe5b602002602001019073ffffffffffffffffffffffffffffffffffffffff16908173ffffffffffffffffffffffffffffffffffffffff1681525050600260009054906101000a900473ffffffffffffffffffffffffffffffffffffffff168160018151811061090157fe5b602002602001019073ffffffffffffffffffffffffffffffffffffffff16908173ffffffffffffffffffffffffffffffffffffffff16815250506060600160009054906101000a900473ffffffffffffffffffffffffffffffffffffffff1673ffffffffffffffffffffffffffffffffffffffff1663d06ca61f84846040518363ffffffff1660e01b815260040161099a92919061224c565b60006040518083038186803b1580156109b257600080fd5b505afa1580156109c6573d6000803e3d6000fd5b505050506040513d6000823e3d601f19601f820116820180604052506109ef9190810190611b83565b9050600160009054906101000a900473ffffffffffffffffffffffffffffffffffffffff1673ffffffffffffffffffffffffffffffffffffffff166318cbafe58483600181518110610a3d57fe5b60200260200101518530426040518663ffffffff1660e01b8152600401610a689594939291906122c8565b600060405180830381600087803b158015610a8257600080fd5b505af1158015610a96573d6000803e3d6000fd5b505050506040513d6000823e3d601f19601f82011682018060405250610abf9190810190611b83565b5060606002604051908082528060200260200182016040528015610af25781602001602082028038833980820191505090505b509050600260009054906101000a900473ffffffffffffffffffffffffffffffffffffffff1681600081518110610b2557fe5b602002602001019073ffffffffffffffffffffffffffffffffffffffff16908173ffffffffffffffffffffffffffffffffffffffff1681525050600360009054906101000a900473ffffffffffffffffffffffffffffffffffffffff1681600181518110610b8f57fe5b602002602001019073ffffffffffffffffffffffffffffffffffffffff16908173ffffffffffffffffffffffffffffffffffffffff168152505060606000809054906101000a900473ffffffffffffffffffffffffffffffffffffffff1673ffffffffffffffffffffffffffffffffffffffff1663d06ca61f47846040518363ffffffff1660e01b8152600401610c2792919061224c565b60006040518083038186803b158015610c3f57600080fd5b505afa158015610c53573d6000803e3d6000fd5b505050506040513d6000823e3d601f19601f82011682018060405250610c7c9190810190611b83565b90506000809054906101000a900473ffffffffffffffffffffffffffffffffffffffff1673ffffffffffffffffffffffffffffffffffffffff16637ff36ab54783600181518110610cc957fe5b60200260200101518530426040518663ffffffff1660e01b8152600401610cf3949392919061227c565b6000604051808303818588803b158015610d0c57600080fd5b505af1158015610d20573d6000803e3d6000fd5b50505050506040513d6000823e3d601f19601f82011682018060405250610d4a9190810190611b83565b50505050505b8160200151600360009054906101000a900473ffffffffffffffffffffffffffffffffffffffff1673ffffffffffffffffffffffffffffffffffffffff166370a08231306040518263ffffffff1660e01b8152600401610db09190612104565b60206040518083038186803b158015610dc857600080fd5b505afa158015610ddc573d6000803e3d6000fd5b505050506040513d601f19601f82011682018060405250610e009190810190611c16565b1015610e41576040517f08c379a0000000000000000000000000000000000000000000000000000000008152600401610e38906121d6565b60405180910390fd5b60008260200151600360009054906101000a900473ffffffffffffffffffffffffffffffffffffffff1673ffffffffffffffffffffffffffffffffffffffff166370a08231306040518263ffffffff1660e01b8152600401610ea39190612104565b60206040518083038186803b158015610ebb57600080fd5b505afa158015610ecf573d6000803e3d6000fd5b505050506040513d601f19601f82011682018060405250610ef39190810190611c16565b039050600360009054906101000a900473ffffffffffffffffffffffffffffffffffffffff1673ffffffffffffffffffffffffffffffffffffffff1663a9059cbb600460009054906101000a900473ffffffffffffffffffffffffffffffffffffffff16836040518363ffffffff1660e01b8152600401610f7592919061211f565b602060405180830381600087803b158015610f8f57600080fd5b505af1158015610fa3573d6000803e3d6000fd5b505050506040513d601f19601f82011682018060405250610fc79190810190611bc4565b507fa89b78c8d1240154beaf4b865d2d7cb794ac0f358c618aef3de102cf4a4ee42d83600001518242604051610fff9392919061217f565b60405180910390a1505050505050565b600084905060006110208686611278565b9050600061102d8561142a565b90508573ffffffffffffffffffffffffffffffffffffffff1663095ea7b388836040518363ffffffff1660e01b815260040161106a92919061211f565b602060405180830381600087803b15801561108457600080fd5b505af1158015611098573d6000803e3d6000fd5b505050506040513d601f19601f820116820180604052506110bc9190810190611bc4565b50606060036040519080825280602002602001820160405280156110fa57816020015b6110e7611716565b8152602001906001900390816110df5790505b5090506111078387611447565b8160008151811061111457fe5b6020026020010181905250611166604051806040016040528087600181111561113957fe5b8152602001848152506040516020016111529190612216565b604051602081830303815290604052611500565b8160018151811061117357fe5b602002602001018190525061118883836115aa565b8160028151811061119557fe5b6020026020010181905250606060016040519080825280602002602001820160405280156111dd57816020015b6111ca611782565b8152602001906001900390816111c25790505b5090506111e8611663565b816000815181106111f557fe5b60200260200101819052508473ffffffffffffffffffffffffffffffffffffffff1663a67a6a4582846040518363ffffffff1660e01b815260040161123b929190612148565b600060405180830381600087803b15801561125557600080fd5b505af1158015611269573d6000803e3d6000fd5b50505050505050505050505050565b60008083905060008173ffffffffffffffffffffffffffffffffffffffff1663295c39a56040518163ffffffff1660e01b815260040160206040518083038186803b1580156112c657600080fd5b505afa1580156112da573d6000803e3d6000fd5b505050506040513d601f19601f820116820180604052506112fe9190810190611c16565b9050600080600090505b828110156113e8578373ffffffffffffffffffffffffffffffffffffffff1663062bd3e9826040518263ffffffff1660e01b81526004016113499190612231565b60206040518083038186803b15801561136157600080fd5b505afa158015611375573d6000803e3d6000fd5b505050506040513d601f19601f820116820180604052506113999190810190611a90565b91508573ffffffffffffffffffffffffffffffffffffffff168273ffffffffffffffffffffffffffffffffffffffff1614156113db5780945050505050611424565b8080600101915050611308565b506040517f08c379a000000000000000000000000000000000000000000000000000000000815260040161141b906121f6565b60405180910390fd5b92915050565b600061144060028361169c90919063ffffffff16565b9050919050565b61144f6117b2565b6040518061010001604052806001600881111561146857fe5b81526020016000815260200160405180608001604052806000151581526020016000600181111561149557fe5b8152602001600060018111156114a757fe5b8152602001858152508152602001848152602001600081526020013073ffffffffffffffffffffffffffffffffffffffff1681526020016000815260200160405180602001604052806000815250815250905092915050565b6115086117b2565b60405180610100016040528060088081111561152057fe5b81526020016000815260200160405180608001604052806000151581526020016000600181111561154d57fe5b81526020016000600181111561155f57fe5b81526020016000815250815260200160008152602001600081526020013073ffffffffffffffffffffffffffffffffffffffff16815260200160008152602001838152509050919050565b6115b26117b2565b604051806101000160405280600060088111156115cb57fe5b8152602001600081526020016040518060800160405280600115158152602001600060018111156115f857fe5b81526020016000600181111561160a57fe5b8152602001858152508152602001848152602001600081526020013073ffffffffffffffffffffffffffffffffffffffff1681526020016000815260200160405180602001604052806000815250815250905092915050565b61166b61181e565b60405180604001604052803073ffffffffffffffffffffffffffffffffffffffff1681526020016001815250905090565b6000808284019050838110156116e7576040517f08c379a00000000000000000000000000000000000000000000000000000000081526004016116de906121b6565b60405180910390fd5b8091505092915050565b60405180604001604052806000600181111561170957fe5b8152602001600081525090565b6040518061010001604052806000600881111561172f57fe5b81526020016000815260200161174361184e565b81526020016000815260200160008152602001600073ffffffffffffffffffffffffffffffffffffffff16815260200160008152602001606081525090565b6040518060400160405280600073ffffffffffffffffffffffffffffffffffffffff168152602001600081525090565b604051806101000160405280600060088111156117cb57fe5b8152602001600081526020016117df61184e565b81526020016000815260200160008152602001600073ffffffffffffffffffffffffffffffffffffffff16815260200160008152602001606081525090565b6040518060400160405280600073ffffffffffffffffffffffffffffffffffffffff168152602001600081525090565b60405180608001604052806000151581526020016000600181111561186f57fe5b81526020016000600181111561188157fe5b8152602001600081525090565b60008135905061189d81612614565b92915050565b6000815190506118b281612614565b92915050565b600082601f8301126118c957600080fd5b81516118dc6118d78261234f565b612322565b9150818183526020840193506020810190508385602084028201111561190157600080fd5b60005b8381101561193157816119178882611a7b565b845260208401935060208301925050600181019050611904565b5050505092915050565b60008151905061194a8161262b565b92915050565b600082601f83011261196157600080fd5b813561197461196f82612377565b612322565b9150808252602083016020830185838301111561199057600080fd5b61199b83828461258d565b50505092915050565b6000813590506119b381612642565b92915050565b6000815190506119c881612642565b92915050565b6000604082840312156119e057600080fd5b6119ea6040612322565b905060006119fa848285016119b9565b6000830152506020611a0e84828501611a7b565b60208301525092915050565b600060408284031215611a2c57600080fd5b611a366040612322565b90506000611a468482850161188e565b6000830152506020611a5a84828501611a66565b60208301525092915050565b600081359050611a7581612652565b92915050565b600081519050611a8a81612652565b92915050565b600060208284031215611aa257600080fd5b6000611ab0848285016118a3565b91505092915050565b60008060008060808587031215611acf57600080fd5b6000611add8782880161188e565b9450506020611aee8782880161188e565b9350506040611aff87828801611a66565b9250506060611b10878288016119a4565b91505092959194509250565b600080600060808486031215611b3157600080fd5b6000611b3f8682870161188e565b9350506020611b5086828701611a1a565b925050606084013567ffffffffffffffff811115611b6d57600080fd5b611b7986828701611950565b9150509250925092565b600060208284031215611b9557600080fd5b600082015167ffffffffffffffff811115611baf57600080fd5b611bbb848285016118b8565b91505092915050565b600060208284031215611bd657600080fd5b6000611be48482850161193b565b91505092915050565b600060408284031215611bff57600080fd5b6000611c0d848285016119ce565b91505092915050565b600060208284031215611c2857600080fd5b6000611c3684828501611a7b565b91505092915050565b6000611c4b8383611c92565b60208301905092915050565b6000611c638383611f80565b905092915050565b6000611c7783836120b7565b60408301905092915050565b611c8c8161250f565b82525050565b611c9b8161247b565b82525050565b611caa8161247b565b82525050565b6000611cbb826123d3565b611cc58185612426565b9350611cd0836123a3565b8060005b83811015611d01578151611ce88882611c3f565b9750611cf3836123ff565b925050600181019050611cd4565b5085935050505092915050565b6000611d19826123de565b611d238185612437565b935083602082028501611d35856123b3565b8060005b85811015611d715784840389528151611d528582611c57565b9450611d5d8361240c565b925060208a01995050600181019050611d39565b50829750879550505050505092915050565b6000611d8e826123e9565b611d988185612448565b9350611da3836123c3565b8060005b83811015611dd4578151611dbb8882611c6b565b9750611dc683612419565b925050600181019050611da7565b5085935050505092915050565b611dea8161248d565b82525050565b6000611dfb826123f4565b611e058185612459565b9350611e1581856020860161259c565b611e1e816125cf565b840191505092915050565b611e3281612521565b82525050565b611e4181612533565b82525050565b611e5081612545565b82525050565b611e5f81612557565b82525050565b611e6e81612557565b82525050565b6000611e81601b8361246a565b91507f536166654d6174683a206164646974696f6e206f766572666c6f7700000000006000830152602082019050919050565b6000611ec160248361246a565b91507f4e6f7420656e6f7567682066756e647320746f2072657061792064796478206c60008301527f6f616e21000000000000000000000000000000000000000000000000000000006020830152604082019050919050565b6000611f2760248361246a565b91507f4e6f206d61726b6574496420666f756e6420666f722070726f7669646564207460008301527f6f6b656e000000000000000000000000000000000000000000000000000000006020830152604082019050919050565b600061016083016000830151611f996000860182611e29565b506020830151611fac60208601826120e6565b506040830151611fbf6040860182612062565b506060830151611fd260c08601826120e6565b506080830151611fe560e08601826120e6565b5060a0830151611ff9610100860182611c92565b5060c083015161200d6101208601826120e6565b5060e08301518482036101408601526120268282611df0565b9150508091505092915050565b6040820160008201516120496000850182611e56565b50602082015161205c60208501826120e6565b50505050565b6080820160008201516120786000850182611de1565b50602082015161208b6020850182611e38565b50604082015161209e6040850182611e47565b5060608201516120b160608501826120e6565b50505050565b6040820160008201516120cd6000850182611c92565b5060208201516120e060208501826120e6565b50505050565b6120ef81612505565b82525050565b6120fe81612505565b82525050565b60006020820190506121196000830184611c83565b92915050565b60006040820190506121346000830185611ca1565b61214160208301846120f5565b9392505050565b600060408201905081810360008301526121628185611d83565b905081810360208301526121768184611d0e565b90509392505050565b60006060820190506121946000830186611e65565b6121a160208301856120f5565b6121ae60408301846120f5565b949350505050565b600060208201905081810360008301526121cf81611e74565b9050919050565b600060208201905081810360008301526121ef81611eb4565b9050919050565b6000602082019050818103600083015261220f81611f1a565b9050919050565b600060408201905061222b6000830184612033565b92915050565b600060208201905061224660008301846120f5565b92915050565b600060408201905061226160008301856120f5565b81810360208301526122738184611cb0565b90509392505050565b600060808201905061229160008301876120f5565b81810360208301526122a38186611cb0565b90506122b26040830185611c83565b6122bf60608301846120f5565b95945050505050565b600060a0820190506122dd60008301886120f5565b6122ea60208301876120f5565b81810360408301526122fc8186611cb0565b905061230b6060830185611c83565b61231860808301846120f5565b9695505050505050565b6000604051905081810181811067ffffffffffffffff8211171561234557600080fd5b8060405250919050565b600067ffffffffffffffff82111561236657600080fd5b602082029050602081019050919050565b600067ffffffffffffffff82111561238e57600080fd5b601f19601f8301169050602081019050919050565b6000819050602082019050919050565b6000819050602082019050919050565b6000819050602082019050919050565b600081519050919050565b600081519050919050565b600081519050919050565b600081519050919050565b6000602082019050919050565b6000602082019050919050565b6000602082019050919050565b600082825260208201905092915050565b600082825260208201905092915050565b600082825260208201905092915050565b600082825260208201905092915050565b600082825260208201905092915050565b6000612486826124e5565b9050919050565b60008115159050919050565b60008190506124a7826125e0565b919050565b60008190506124ba826125ed565b919050565b60008190506124cd826125fa565b919050565b60008190506124e082612607565b919050565b600073ffffffffffffffffffffffffffffffffffffffff82169050919050565b6000819050919050565b600061251a82612569565b9050919050565b600061252c82612499565b9050919050565b600061253e826124ac565b9050919050565b6000612550826124bf565b9050919050565b6000612562826124d2565b9050919050565b60006125748261257b565b9050919050565b6000612586826124e5565b9050919050565b82818337600083830152505050565b60005b838110156125ba57808201518184015260208101905061259f565b838111156125c9576000848401525b50505050565b6000601f19601f8301169050919050565b600981106125ea57fe5b50565b600281106125f757fe5b50565b6002811061260457fe5b50565b6002811061261157fe5b50565b61261d8161247b565b811461262857600080fd5b50565b6126348161248d565b811461263f57600080fd5b50565b6002811061264f57600080fd5b50565b61265b81612505565b811461266657600080fd5b5056fea365627a7a72315820fbc4b2c8f502179e2be1206b6ae7c35e2caaa278dd4128581039d29d94dc848c6c6578706572696d656e74616cf564736f6c63430005100040",
  "source": "pragma solidity ^0.5.0;\npragma experimental ABIEncoderV2;\n\nimport \"@studydefi/money-legos/dydx/contracts/DydxFlashloanBase.sol\";\nimport \"@studydefi/money-legos/dydx/contracts/ICallee.sol\";\nimport \"@openzeppelin/contracts/token/ERC20/IERC20.sol\";\nimport './IUniswapV2Router02.sol';\nimport './IWeth.sol';\n\ncontract SushiUniFlashloan is ICallee, DydxFlashloanBase {\n    enum Direction { SushiToUniswap, UniswapToSushi}\n    struct ArbInfo {\n        Direction direction;\n        uint repayAmount;\n    }\n\n    event NewArbitrage (\n        Direction direction,\n        uint profit,\n        uint date\n    );\n\n    IUniswapV2Router02 sushi;\n    IUniswapV2Router02 uniswap;\n    IWeth weth;\n    IERC20 dai;\n    address beneficiary;\n\n\n    constructor(\n        address sushiAddress,\n        address uniswapAddress,\n        address wethAddress,\n        address daiAddress,\n        address beneficiaryAddress\n    ) public {\n        sushi = IUniswapV2Router02(sushiAddress);\n        uniswap = IUniswapV2Router02(uniswapAddress);\n        weth = IWeth(wethAddress);\n        dai = IERC20(daiAddress);\n        beneficiary = beneficiaryAddress;\n    }\n\n    // This is the function that will be called postLoan\n    // i.e. Encode the logic to handle your flashloaned funds here\n    function callFunction(\n        address sender,\n        Account.Info memory account,\n        bytes memory data\n    ) public {\n        ArbInfo memory arbInfo = abi.decode(data, (ArbInfo));\n        uint256 balanceDai = dai.balanceOf(address(this));\n\n        if(arbInfo.direction == Direction.SushiToUniswap) {\n            //Buy ETH on Sushi\n            dai.approve(address(sushi), balanceDai);\n            address[] memory path = new address[](2);\n            path[0] = address(dai);\n            path[1] = address(weth);\n            uint[] memory minOuts = sushi.getAmountsOut(balanceDai, path);\n            sushi.swapExactTokensForETH(\n                balanceDai,\n                minOuts[1],\n                path,\n                address(this),\n                now\n            );\n\n            //Sell ETH on Uniswap\n            address[] memory path2 = new address[](2);\n            path2[0] = address(weth);\n            path2[1] = address(dai);\n            uint[] memory minOuts2 = uniswap.getAmountsOut(address(this).balance, path2);\n            uniswap.swapExactETHForTokens.value(address(this).balance)(\n                minOuts2[1],\n                path2,\n                address(this),\n                now\n            );\n        } else {\n            //Buy ETH on Uniswap\n            dai.approve(address(uniswap), balanceDai);\n            address[] memory path = new address[](2);\n            path[0] = address(dai);\n            path[1] = address(weth);\n            uint[] memory minOuts = uniswap.getAmountsOut(balanceDai, path);\n            uniswap.swapExactTokensForETH(\n                balanceDai,\n                minOuts[1],\n                path,\n                address(this),\n                now\n            );\n\n            //Sell ETH on Sushi\n            address[] memory path2 = new address[](2);\n            path2[0] = address(weth);\n            path2[1] = address(dai);\n            uint[] memory minOuts2 = sushi.getAmountsOut(address(this).balance, path2);\n            sushi.swapExactETHForTokens.value(address(this).balance)(\n                minOuts2[1],\n                path2,\n                address(this),\n                now\n            );\n        }\n        require(\n            dai.balanceOf(address(this)) >= arbInfo.repayAmount,\n            \"Not enough funds to repay dydx loan!\"\n        );\n\n        uint profit = dai.balanceOf(address(this)) - arbInfo.repayAmount;\n        dai.transfer(beneficiary, profit);\n        emit NewArbitrage(arbInfo.direction, profit, now);\n    }\n\n    function initiateFlashloan(\n        address _solo,\n        address _token,\n        uint256 _amount,\n        Direction _direction)\n    external\n    {\n        ISoloMargin solo = ISoloMargin(_solo);\n\n        // Get marketId from token address\n        uint256 marketId = _getMarketIdFromTokenAddress(_solo, _token);\n\n        // Calculate repay amount (_amount + (2 wei))\n        // Approve transfer from\n        uint256 repayAmount = _getRepaymentAmountInternal(_amount);\n        IERC20(_token).approve(_solo, repayAmount);\n\n        // 1. Withdraw $\n        // 2. Call callFunction(...)\n        // 3. Deposit back $\n        Actions.ActionArgs[] memory operations = new Actions.ActionArgs[](3);\n\n        operations[0] = _getWithdrawAction(marketId, _amount);\n        operations[1] = _getCallAction(\n        // Encode MyCustomData for callFunction\n            abi.encode(ArbInfo({direction: _direction, repayAmount: repayAmount}))\n        );\n        operations[2] = _getDepositAction(marketId, repayAmount);\n\n        Account.Info[] memory accountInfos = new Account.Info[](1);\n        accountInfos[0] = _getAccountInfo();\n\n        solo.operate(accountInfos, operations);\n    }\n\n    function() external payable {}\n}",
  "sourcePath": "/Users/btpantwi/Desktop/Work/Afria/FlashLoans/contracts/SushiUniFlashloan.sol",
  "compiler": {
    "name": "solc",
    "version": "0.5.16+commit.9c3226ce.Emscripten.clang"
  },
  "schemaVersion": "3.4.3",
  "updatedAt": "2021-10-18T02:24:49.765Z",
  "networkType": "ethereum",
  "devdoc": {
    "methods": {}
  },
  "userdoc": {
    "methods": {}
  }
}